:020000040800F2
:10000000500E002021030008314D000889490008E6
:100010002D4D0008E9070008F162000833030008CD
:10002000000000000000000000000000E14F000898
:10003000ED07000800000000354D0008E54F0008FE
:100040003D0300083D0300083D0300083D03000890
:100050003D0300083D0300083D0300083D03000880
:100060003D0300083D0300083D0300083D03000870
:100070003D0300083D0300083D0300083D03000860
:100080003D0300083D0300083D0300083D03000850
:100090003D0300083D0300083D0300083D03000840
:1000A000F10700083D0300083D0300083D03000878
:1000B0003D0300083D0300083D0300083D03000820
:1000C0003D0300083D0300083D0300083D03000810
:1000D0003D0300083D0300083D0300083D03000800
:1000E0003D0300083D0300083D0300083D030008F0
:1000F0003D0300083D0300083D0300083D030008E0
:100100003D0300083D0300083D0300083D030008CF
:100110003D0300083D0300083D0300083D030008BF
:100120003D0300083D0300083D0300083D030008AF
:100130003D0300083D0300083D0300083D0300089F
:100140003D0300083D0300083D0300083D0300088F
:100150003D0300083D0300083D0300083D0300087F
:100160000000000000000000495900083D0300089D
:100170003D0300083D0300083D0300083D0300085F
:100180003D0300083D0300083D0300080000000097
:10019000000000003D030008000000000000000017
:1001A00000000000000000003D0300083D030008BF
:1001B0003D0300083D0300083D0300083D0300081F
:1001C0003D0300083D03000800000000000000009F
:1001D0000000000000000000000000003D030008D7
:1001E0003D0300083D03000800000000000000007F
:1001F0003D0300083D0300083D0300080000000027
:10020000000000003D0300083D0300083D03000816
:100210003D0300083D0300083D0300083D030008BE
:100220003D03000800000000000000003D0300083E
:100230003D03000800000000000000000000000076
:100240000000000000000000000000003D03000866
:100250003D03000800F002F800F052F814A696E8FA
:10026000000CB244B344DA4501D100F049F8BAE8D1
:100270000F000FA696E83000A5EB040504EB060777
:10028000AAEB0704A7F101074FEA15154FEA34144A
:10029000A4F10104AC4201D300F032F813F0010FD5
:1002A00018BFFB1A43F0010300F001F8DBE7184721
:1002B000E896000008970000103A24BF78C878C17B
:1002C000FAD8520724BF30C830C144BF04680C605C
:1002D000704700007047000000230024002500261E
:1002E000103A28BF78C1FBD8520728BF30C148BF99
:1002F0000B6070471FB509F0BDFA1FBD10B510BDEA
:1003000000F08AF91146FFF7F5FF07F007F900F052
:10031000A8F903B4FFF7F2FF03BC00F0AFF9000047
:100320000A4880470A480047FEE7FEE7FEE7FEE787
:10033000FEE7FEE7FEE7FEE7FEE7FEE7FEE700007A
:1003400004480549054A064B70470000B5500008AF
:100350005502000850080020500E0020500A0020CE
:10036000500A002053EA020C00F069802DE9F04B9E
:100370004FF00006002B1FBFB3FA83F503FA05F414
:1003800024FA05F65E4012BF1643B2FA82F502FA6D
:1003900005F4C5F120051EBF22FA05FC44EA0C0451
:1003A000203556EA044C4FEA144418BF641C4FF041
:1003B00000084FF00009904271EB030C39D300297B
:1003C00019BFB1FA81F701FA07F6B0FA80F700FA1F
:1003D00007F6C7F120071EBF20FA07FC46EA0C0605
:1003E0002037B6FBF4FCA7EB0507103F07F01F0B07
:1003F000CBF120062CFA06F60CFA0BFB44BFB346F1
:100400000026202FA4BF5E464FF0000B5BEA060CCF
:1004100008BF4FF0010B19EB0B0948EB0608ABFBCB
:10042000027C06FB02CC0BFB03CCC01B71EB0C0166
:10043000C1E70B46024641464846BDE8F08B13B57E
:10044000084318BF4FF0FF300146AFF30080BDE80E
:100450001C40704710B5431C02E010F8011B71B13D
:100460008107FAD14FF0013202C88C1A8C4314EA8A
:10047000C211F9D0C01A0A0603D0C01E10BDC01A9E
:1004800010BD0A0401D0801E10BD0902FCD0401E20
:1004900010BD032A40F2308010F0030C00F01580EC
:1004A00011F8013BBCF1020F624498BF11F801CB77
:1004B00000F8013B38BF11F8013BA2F1040298BFDC
:1004C00000F801CB38BF00F8013B11F0030300F046
:1004D0007180083AC0F0088051F8043B083A51F89E
:1004E00004CBA0E80810F5E7121D5CBF51F8043BEF
:1004F00040F8043BAFF30080D20724BF11F8013B62
:1005000011F801CB48BF11F8012B24BF00F8013BC3
:1005100000F801CB48BF00F8012B70474FF00002F4
:100520000429C0F0128010F0030C00F01B80CCF105
:10053000040CBCF1020F18BF00F8012BA8BF20F873
:10054000022BA1EB0C0100F00DB85FEAC17C24BFC7
:1005500000F8012B00F8012B48BF00F8012B704771
:100560004FF0000200B5134694469646203922BF4C
:10057000A0E80C50A0E80C50B1F12001BFF4F7AF97
:10058000090728BFA0E80C5048BF0CC05DF804EB79
:10059000890028BF40F8042B08BF704748BF20F8E7
:1005A000022B11F0804F18BF00F8012B70477047E5
:1005B0007047704710B5203AC0F00B80B1E8185072
:1005C000A0E81850B1E81850A0E81850203ABFF43D
:1005D000F5AF5FEA027C24BFB1E81850A0E81850DC
:1005E00044BF18C918C0BDE810405FEA827C24BF30
:1005F00051F8043B40F8043B08BF7047D20728BFBE
:1006000031F8023B48BF11F8012B28BF20F8023B0C
:1006100048BF00F8012B7047754600F02BF8AE4636
:1006200005006946534620F00700854618B020B5FE
:10063000FFF786FEBDE820404FF000064FF00007B0
:100640004FF000084FF0000BAC46ACE8C009ACE836
:10065000C009ACE8C009ACE8C00921F007018D462B
:10066000704710B50446AFF300802046BDE8104047
:10067000FFF74FBE00487047400000200149182096
:10068000ABBEFEE7260002007047000000281CBF3A
:100690006FF0010070472DE9F04186B040F68C40C4
:1006A000C4F202400268002442F0010202600268C3
:1006B000C4F2022402F001020192019A026801AD23
:1006C00042F0010202600268022702F00102019278
:1006D000019A02694FF0070842F400320261006992
:1006E0000E4600F400300190019804200190012092
:1006F00003902046294602970497CDF8148000F015
:10070000C1F80820CDE9010720462946CDF814801C
:1007100000F0B8F840F23030C2F20000314604F088
:10072000FBF9002818BF6FF0030006B0BDE8F081A8
:100730007047000000EB400040F2C431C2F20001FB
:1007400001EB800000F062B810B586B040F68C4234
:10075000C4F202421368044643F0040313601268B3
:1007600002F00400019001984FF40050019040F60F
:1007700000004FF00202C4F202200392049239B347
:100780000021C1F21101029101A900F07BF804EBF4
:10079000440040F2C431C2F2000101EB80040D219B
:1007A000C0F20061204600F02BF840F2E1722046D2
:1007B000C0F60002002100F053F818200F2100229B
:1007C00000F0D6F9182000F0C1F9002006B010BDE5
:1007D0000021029101A900F055F8002006B010BDDB
:1007E0000020FFF7A5BF0000FEE7000070470000F3
:1007F0000020FFF79FBF000072B600BFFEE70000B9
:1008000000280EBF0120016000207047F0B581B0C4
:1008100004460068082202EA503542F20C07C4F28E
:10082000024700F01F01012057F8252000FA01F6C9
:10083000164205D047F825606068002818BF804739
:10084000381D50F82510314208D040F82560A068C6
:1008500020B101B0BDE8F040004700BF01B0F0BDDD
:10086000022906D0012909D000291CBF01207047A8
:100870004260082142500020704700BF04214250CE
:10088000002070470A68002A08BF70472DE9F04F22
:1008900083B000F12003019347F67F73C0F22F036A
:1008A00003EA90234FF0000A4FF0010B00274FF0AE
:1008B000000C002500930BE00A68013532FA05F3BD
:1008C0000CF1040C07F102070AF1080A00F09A8003
:1008D0000BFA05F912EA0902EED0D1F8048002926F
:1008E00048F01006122E1BD16FF0030202EA5506E3
:1008F000DDF804B00CF01C025BF80640D1F8108063
:100900000F2303FA02FE08F00F0324EA0E0403FA91
:1009100002F222434BF80620D1F804804FF0010B7D
:1009200002680323BB4008F0030EDC439A430EFA2F
:1009300007F31A43B8F1120F02605BD80BFA08F202
:1009400012F0061F56D08368D1E902262340BE402C
:100950003343836043684FEA181623EA0903AE4025
:1009600033434360C368BA4023401A43C260029CC9
:100970005FEAC802A0D542F2000E25F00302C4F2DD
:10098000024E7244D2F860800AF018060F23B3407A
:1009900028EA0308009B03FA06F648EA06031366F2
:1009A000DEF800804B6848EA0406DA0258BF28EAFD
:1009B0000406CEF80060DEF804809A0248EA0406D5
:1009C00058BF28EA0406CEF80460DEF884809A0353
:1009D00048EA040658BF28EA0406CEF88460DEF828
:1009E0008020DB0342EA040658BF22EA0406CEF860
:1009F000806061E78A68BEF1030F08BF012AB1D1A8
:100A0000B5E700BF03B0BDE8F04F70471823002AD8
:100A100008BF2823C150704740F24870C2F200005E
:100A20000068704740F20041C4F20301086840F0DA
:100A3000010200200A60704740F2000040F2487155
:100A4000C2F20000C2F2000100780A681044086097
:100A50007047000080B5032000F0B6F802F04CFEAD
:100A600040F62041C4F20241096849F6900201F0C3
:100A70000F01C0F60002515CC84040F22401C2F2EE
:100A800000010860042003F0E1FE0F2000F008F8E8
:100A900000281CBF012080BD00F056F8002080BD5A
:100AA000B0B540F20005C2F200052978E1B3044672
:100AB0004EF21000CEF200000068400710D403F0A0
:100AC00013FF022824D001281AD078BB40F224005A
:100AD000C2F20000006829784FF4FA5207E000BF24
:100AE00040F22400C2F2000000684FF47A72B2FBB8
:100AF000F1F1B0FBF1F003F0E5FEA8B91BE000BF97
:100B000028784FF47A71B1FBF0F04FF4FA4106E027
:100B100028784FF47A71B1FBF0F04FF40041B1FB4B
:100B2000F0F003F0CFFE30B10120B0BD002003F0A3
:100B3000C9FE0028F8D14FF0FF302146002200F016
:100B400017F800206C60B0BD70470000002848BF57
:100B5000704700F01F010122C0F34A1002FA01F1B0
:100B60004EF20012CEF2000242F820107047000050
:100B700010B54EF60C5CCEF2000CDCF80030C3F37E
:100B8000022E8EF00704042C28BF0424BEF10303B8
:100B90004FF0FF3E38BF00230EFA04F4A143994002
:100BA0000EFA03F39A43114300F00F0200F1604381
:100BB0000901043A03F564436244002848BF02F186
:100BC0000C03197010BD00004EF60C51CEF200015E
:100BD0000A684FF6FF031A4060F30A2242F0806071
:100BE00040F0FD700860704701220168C0F8D8220B
:100BF000002280F8CC22486D40F001004865486D25
:100C000040F0020200204A65704700007047000073
:100C100070470000704700002DE9F04F85B0044692
:100C2000006805F077FA01041AD4410534D4410470
:100C30004ED4810400F1C084C10400F1C1840105D7
:100C400000F1F684010600F10785810500F11485A5
:100C5000C00540F1D28420684FF6FF6200F0CABCA4
:100C60002068416C090440F1C88404F1140140F685
:100C70000F79039104F52771C0F2FF7946F200471E
:100C800004F5AA7B02910A2509F54051C4F2010737
:100C90000191CDF800B032E020684FF6FF32416C90
:100CA00011404164204600F06FFE94F89402012840
:100CB00000F0A3840120002584F894026574206864
:100CC000002105F0A5FA84F8945205B0BDE8F08F34
:100CD00020684BF6FF7200F08DBC00BF307807EB48
:100CE000C000416889B24160416841603178204666
:100CF000FFF78EFF2068416C090440F17E84426C4E
:100D000012F00F0A56D050F82A805FEA084140F1ED
:100D1000DE8150F82A100AEB8A0201EA090141F04B
:100D200080010BEBC20640F82A10317B002900F04D
:100D3000AD80F178022940F0CD8031785FEA4842F9
:100D400000F134810495049AAAB100BF049A013AD3
:100D50000492049A7AB1049A013A0492049A52B124
:100D6000049A013A0492049A2AB1049A013A04922C
:100D7000049A002AEAD107EBC10200235268C2F3A9
:100D80000947B269D21B38BF1A46B26140F2588196
:100D90005FEA486200F1618150F8212048F2C00307
:100DA00002EA09021A4340F82120002F40F0568140
:100DB00074E100BF0168D20622D401EA090141F4BE
:100DC00000410160207D57F83000A16AC0F309405E
:100DD00020630844A06220460021FFF719FF607CD1
:100DE00000283FF487AFE06A00287FF483AF607C7F
:100DF000216840F08000C864002060747AE700BF7A
:100E00000A0500F1978009047FF574AF016801EAD3
:100E1000090141F0800101609BF800100495049ADB
:100E2000AAB100BF049A013A0492049A7AB1049AD2
:100E3000013A0492049A52B1049A013A0492049A33
:100E40002AB1049A013A0492049A002AEAD107EBE3
:100E5000C1014968C1F30943002BC4F8703100F0A7
:100E60009B82D4F8681100293FF444AFB4F85A21AA
:100E700005F052F9D4F86801D4F870110844C4F8A8
:100E8000680120460021FFF7C5FE33E7317804955D
:100E9000049AA2B1049A013A0492049A7AB1049A8B
:100EA000013A0492049A52B1049A013A0492049AC3
:100EB0002AB1049A013A0492049A002AEAD107EB73
:100EC000C1014968C1F30947002F00F0E78071694B
:100ED000F288DFE0317848F2C00350F8212002EABE
:100EE00009021A4340F8212050F82120520400F151
:100EF00087800495049AA2B1049A013A0492049A54
:100F00007AB1049A013A0492049A52B1049A013ACD
:100F10000492049A2AB1049A013A0492049A002A8B
:100F2000EAD107EBC1014968C1F30947002F40F03E
:100F30009580B3E09BF800100495049AAAB100BF15
:100F4000049A013A0492049A7AB1049A013A0492FA
:100F5000049A52B1049A013A0492049A2AB1049A6A
:100F6000013A0492049A002AEAD107EBC101002356
:100F70004968C0F2FF33C1F309421940B1F5002FAF
:100F8000C4F8702140F03C83B4F85A210299082338
:100F900005F0C2F82068016801EA090141F080010A
:100FA0000160204600F0F6FCA4E600BF0495049A18
:100FB000AAB100BF049A013A0492049A7AB1049A41
:100FC000013A0492049A52B1049A013A0492049AA2
:100FD0002AB1049A013A0492049A002AEAD157F8F5
:100FE00031200023C2F30947B269D21B38BF1A4629
:100FF000B26137D95FEA486240D4002F48D14DE052
:101000000495049AAAB100BF049A013A0492049A82
:101010007AB1049A013A0492049A52B1049A013ABC
:101020000492049A2AB1049A013A0492049A002A7A
:10103000EAD157F83110C1F309474FBB2EE000BF8A
:1010400050F82120019B1A404AF280035A4040F890
:1010500021205FEA48627FF59FAEFFB17169728916
:1010600018E000BF50F82120019B1A404AF280038B
:101070005A4040F821205FEA4862BED550F821204E
:1010800048F2C00302EA09021A4340F821202FB1B6
:10109000716932893B4605F03FF800E00027D6E948
:1010A00006013944F16110B13069B84204D9317890
:1010B0002046FFF7AFFD06E07069C1192068716135
:1010C000314604F06FFC46F20047C4F201075FEAC4
:1010D00008607FF50FAE20680AEB8A0150F82A20DD
:1010E000039B03EBC10602EA090141F4004140F809
:1010F0002A10F278012A1DD1307B00284FF0000021
:10110000B0613FF4F3AD70785FEA486100F1808030
:1011100001283FF4E3AD00287FF4E8AD307807EB19
:10112000C000416821F07C414160416841F00041CC
:10113000DBE500BF5FEAC85116D4317857F831209B
:10114000B369C2F3094200279B1A38BF3B46B3611B
:1011500072D97169F369114471619918F16131466D
:1011600004F020FC22E200BF31785FEA486367D4D4
:101170000495049BABB100BF049B013B0493049B0B
:101180007BB1049B013B0493049B53B1049B013B43
:101190000493049B2BB1049B013B0493049B002B01
:1011A000EAD107EBC10E00235EF8047FB569C7F3EF
:1011B0000947ED1B38BF1D46B56140F28D80DDF853
:1011C00000B05FEA484208D450F821204CF2800376
:1011D00002EA09021A4340F8212096F824100A2551
:1011E000012940F0D781D6E904C1D6E907523D4430
:1011F000394462457161F56180F03881002A00F060
:10120000698100239446336286F8243066E100BF8A
:10121000012800F0C98000287FF468AD307857F8C5
:10122000301021F07C4147F8301057F8301041F071
:10123000004147F8301059E52046FFF7E9FCB5E1D9
:101240000495049BABB100BF049B013B0493049B3A
:101250007BB1049B013B0493049B53B1049B013B72
:101260000493049B2BB1049B013B0493049B002B30
:10127000EAD157F83130B769C3F309430025FF1AA3
:1012800038BF2F46B7614DD95FEA484208D550F8BC
:1012900021204CF2800702EA09023A4340F821205B
:1012A00096F824200A25012A40F07481D6E90472B8
:1012B000D6E9075E02EB030CEA18BE45C6F814C077
:1012C000F26180F0D7800022BEF1000F86F8242062
:1012D00040F0D3809E46D1E07778DDF800B0012F52
:1012E0006ED0002F4FF00A0540F0818046F2004397
:1012F000C4F2010353F8317027F07C4743F8317092
:1013000053F8317047F0004743F83170DEF8007051
:1013100027F07C47CEF80070DEF8007047F00047F9
:1013200063E000BF7378012B00F086804FF00A0560
:10133000CBB946F2004CC4F2010C5CF831300CEB36
:10134000C10723F07C434CF831305CF8313043F076
:1013500000434CF831307B6823F07C437B607B6832
:1013600043F000437B60022A09D150F8212009F1A3
:1013700030031A4048F2A0035A4040F8212020468A
:10138000FFF746FC46F200475FEA4840C4F2010717
:101390007FF5B0AC42E000BF0168019A11404BF20A
:1013A000800251400160A5E4307857F8301089B2CE
:1013B00047F8301057F8301047F8301096E400BF67
:1013C00046F20043C4F2010353F831700A25BFB25C
:1013D00043F8317053F8317043F83170DEF8007023
:1013E000BFB2CEF80070DEF80070CEF8007046F2A2
:1013F0000047022AC4F2010709D150F8212009F15F
:1014000030031A4048F2A0035A4040F821202046F9
:10141000FFF7FEFB5FEA48403FF56CAC206831788F
:101420004CF2800350F8212002EA09021A4340F8E6
:101430002120FFF75FBC00BF46F20045C4F2010562
:1014400055F8313005EBC1079BB245F8313055F8FE
:10145000313045F831307B680A259BB27B607B6870
:101460007B60022A3FF481AF89E700BFA2EB0C0248
:10147000326233E0AEEB0702BE4632627278DDF8CC
:1014800000B046F200470A25C4F20107012A17D02E
:10149000002A64D157F83120BEF1000F22F07C42BF
:1014A00047F8312042D0BEF13E0F47D80EF001027E
:1014B00002EB5E0257F8313043EA82624DE000BF32
:1014C00057F8312092B247F8312057F8312042EADC
:1014D0000E4242E0002286F82420BC467278DDF8F5
:1014E00000B00A25012A17D0002A4ED1DEF80020CC
:1014F000BCF1000F22F07C42CEF800201AD0BCF1E3
:101500003E0F31D80CF0010202EB5C02DEF80070F5
:1015100047EA826237E000BFDEF8002092B2CEF8E0
:101520000020DEF8002042EA0C422CE057F831207F
:1015300011E000BFDEF8002023E000BF5FEACE63C9
:101540004FEA5E124FF0FF3308BF03EB5E1257F80D
:10155000313043EA826242F0004247F8312032895A
:101560001FFA8EF3614613E04FEA5C125FEACC6724
:101570004FF0FF3308BF03EB5C12DEF8007047EA60
:10158000826242F00042CEF8002072891FFA8CF38A
:1015900004F044FE2068317809F1300350F821202E
:1015A0001A4048F2B0035A4040F8212046F2004762
:1015B000C4F20107FFF79EBB20684DF6FF7219E0E9
:1015C0002068016C21F004010164016C21F0080124
:1015D000016494F8CC02012806D1002084F8CC02E2
:1015E00020460021FFF712FB204600F0CFF92068CB
:1015F0004EF6FF72416C1140416405B0BDE8F08FBA
:101600000168019A114049F280025140016001686D
:1016100009F13002114048F2900251400160016826
:1016200001EA090141F08001016005B0BDE8F08FD9
:1016300021684FF2FF72086C40F008000864486CA3
:1016400010404864086C40F0040220460A6405B06B
:10165000BDE8F04F00F0A0B920684FF67F72416CF2
:101660001140416494F8CC1291B1204605B0BDE818
:10167000F04F00F091B900BF21684FF6FF52486C5F
:10168000024020464A6405B0BDE8F04F00F080B942
:10169000016C41F004010164016C41F00801016436
:1016A000012184F8CC12406D3C2101EA90022046D1
:1016B0000121C4F8D02205B0BDE8F04FFFF7A6BA6B
:1016C000002804BF01207047F0B581B0044690F8AF
:1016D000950228B9002084F89402204600F01CF9F5
:1016E000032084F89502206804F052F994E80F0072
:1016F000267C009604F018F9002840F0F480206859
:10170000002104F073FD002840F0ED8094F804E01F
:10171000BEF1000F00F0E0800EF0030CBEF1040FEC
:101720004FF0000238D30EF0FC03A4F1A000032117
:10173000012500BFCE1E80F8B4608E1E80F8DC60EC
:101740004E1E80F8046180F82C110E1D013180F8C6
:10175000B55080F8B720C0E93122C0F8CC2080F81D
:10176000DD5080F8DF20C0E93B22C0F8F42080F88B
:10177000055180F80721C0E94522C0F81C2180F8F6
:101780002D5180F82F21C0E94F22C0F84421A0300C
:1017900099423146CED1F21EBCF1000F2ED002EBA1
:1017A000820104F1140000EBC105012300F831208F
:1017B0000021BCF1010F6B70E970C5E90411A9614A
:1017C0001CD0551C05EB8506BCF1020F00EBC607CB
:1017D00000F836507B70F970C7E90411B9610DD07B
:1017E000911C01EB8102012500EBC20300F83210CD
:1017F00000205D70D870C3E904009861BEF1000F4D
:101800006AD0BEF1040F4FF0000235D30EF0FC0099
:1018100003212346CF1E83F854718F1E83F87C71F9
:101820004F1E83F8CC110D1D013183F8552183F82B
:101830005721C3E95922C3F86C2183F87D2183F82D
:101840007F21C3E96322C3F8942183F8A52183F89B
:10185000A47183F8A721C3E96D22C3F8BC2183F8E2
:10186000CD2183F8CF21C3E97722C3F8E421A03347
:1018700081422946CED1EA1EBCF1000F2CD002EBEA
:10188000820304F5AA7000EBC3070021BCF1010F2D
:10189000797000F83320F970C7E90411B9611BD0E1
:1018A000531C03EB8307BCF1020F00EBC70600F8E3
:1018B00037307170F170C6E90411B1610CD0911C20
:1018C00001EB8102002700EBC20300F832105F70C9
:1018D000DF70C3E904779F6194E80F00277C0097CD
:1018E00004F046F830B1022084F89502012001B0DE
:1018F000F0BD00BF00206074012084F89502207BB9
:10190000012804BF2046FFF76FF9206804F028F88B
:10191000002001B0F0BD000010B5B6B0044602A82A
:101920000830C821FEF71CFE206846F20001C4F210
:101930000101884202D036B010BD00BF10200390D4
:10194000002002903020339002A800F0FDFF002814
:1019500018BFFEF751FF00F021F840F6A440C4F292
:1019600002400168002241F080710160006800219E
:1019700000F08070019001984A20FFF7F9F84A20A2
:10198000FFF7E4F836B010BD704700007047000064
:1019900070470000704700007047000040F63800B4
:1019A000C4F20240016841F000710160704700001C
:1019B00010B540F6284CC4F2024CDCF80C20DCF8E0
:1019C00000E0DCF80010C1F30523DCF80010DCF8BF
:1019D0001040002B3CD0E408C90604EAE1716FF323
:1019E0005F3100EE101A0EF003016FF35F22B8EEC4
:1019F000400ADFE801F00303333900BF5CF8281C1C
:101A000049F20004C1F3C101C0F2D03424FA01F15B
:101A100001EE101A02EE103AB8EE411AB8EE422A60
:101A20009FED493A81EE021A02EE102A20EE030AD7
:101A3000B8EE422A30EE020AB7EE002A30EE020A71
:101A400020EE010A5CF8281C89012DD528E000BF92
:101A50000021C0E90011816010BD00BF01EE103A05
:101A60009FED3B2A04E000BF01EE103A9FED372ABC
:101A7000B8EE411A82EE011A02EE102A9FED323AB8
:101A8000B8EE422A20EE030A30EE020AB7EE002A30
:101A900030EE020A21EE000A5CF8281C890103D509
:101AA000DCF80010C90307D4002101605CF8281C91
:101AB000890115D418E000BFDCF80C10C1F34621F1
:101AC000013101EE101AB8EE411A80EE011ABCEE97
:101AD000C11A11EE101A01605CF8281C890103D5A7
:101AE000DCF80010890301D400210EE0DCF80C10B2
:101AF000C1F30641013101EE101AB8EE411A80EE31
:101B0000011ABCEEC11A11EE101A41605CF8281CD3
:101B1000890144BFDCF800105FEA413102D40021A2
:101B2000816010BDDCF80C10C1F30661013101EEDB
:101B3000101AB8EE411A80EE010ABCEEC00A10EE8F
:101B4000101A816010BD00BF0000003920BCBE4BE0
:101B50000024744A10B540F62C4CC4F2024CDCF858
:101B60001020DCF800E0DCF80010C1F30523DCF8FD
:101B70000010DCF81440002B3CD0E408C90604EA4D
:101B8000E1716FF35F3100EE101A0EF003016FF395
:101B90005F22B8EE400ADFE801F00303333900BFEB
:101BA0005CF82C1C49F20004C1F3C101C0F2D0342E
:101BB00024FA01F101EE101A02EE103AB8EE411AC1
:101BC000B8EE422A9FED493A81EE021A02EE102A3F
:101BD00020EE030AB8EE422A30EE020AB7EE002ADF
:101BE00030EE020A20EE010A5CF82C1C09012DD50A
:101BF00028E000BF0021C0E90011816010BD00BFD6
:101C000001EE103A9FED3B2A04E000BF01EE103ACE
:101C10009FED372AB8EE411A82EE011A02EE102A21
:101C20009FED323AB8EE422A20EE030A30EE020A65
:101C3000B7EE002A30EE020A21EE000A5CF82C1CF6
:101C4000090103D5DCF80010C90307D400210160A5
:101C50005CF82C1C090115D418E000BFDCF810104A
:101C6000C1F34621013101EE101AB8EE411A80EE9F
:101C7000011ABCEEC11A11EE101A01605CF82C1C9E
:101C8000090103D5DCF80010890301D400210EE01E
:101C9000DCF81010C1F30641013101EE101AB8EE64
:101CA000411A80EE011ABCEEC11A11EE101A416001
:101CB0005CF82C1C090144BFDCF800105FEA4131DC
:101CC00002D40021816010BDDCF81010C1F3066160
:101CD000013101EE101AB8EE411A80EE010ABCEE95
:101CE000C00A10EE101A816010BD00BF000000395C
:101CF00020BCBE4B0024744A10B540F6304CC4F2F0
:101D0000024CDCF81420DCF800E0DCF80010C1F331
:101D10000523DCF80010DCF81840002B3CD0E40868
:101D2000C90604EAE1716FF35F3100EE101A0EF09C
:101D300003016FF35F22B8EE400ADFE801F003030E
:101D4000333900BF5CF8301C49F20004C1F3C10113
:101D5000C0F2D03424FA01F101EE101A02EE103A6A
:101D6000B8EE411AB8EE422A9FED493A81EE021AC6
:101D700002EE102A20EE030AB8EE422A30EE020AE2
:101D8000B7EE002A30EE020A20EE010A5CF8301CA1
:101D900089002DD528E000BF0021C0E90011816035
:101DA00010BD00BF01EE103A9FED3B2A04E000BFDA
:101DB00001EE103A9FED372AB8EE411A82EE011A71
:101DC00002EE102A9FED323AB8EE422A20EE030AC4
:101DD00030EE020AB7EE002A30EE020A21EE000AC7
:101DE0005CF8301C890003D5DCF80010C90307D467
:101DF000002101605CF8301C890015D418E000BF98
:101E0000DCF81410C1F34621013101EE101AB8EECE
:101E1000411A80EE011ABCEEC11A11EE101A0160CF
:101E20005CF8301C890003D5DCF80010890301D46C
:101E300000210EE0DCF81410C1F30641013101EE7F
:101E4000101AB8EE411A80EE011ABCEEC11A11EE5A
:101E5000101A41605CF8301C890044BFDCF80010A7
:101E60005FEA413102D40021816010BDDCF814101A
:101E7000C1F30661013101EE101AB8EE411A80EE8D
:101E8000010ABCEEC00A10EE101A816010BD00BF3E
:101E90000000003920BCBE4B0024744A80B584B0D9
:101EA0004FF6FF730246C0F23F0300209B1A70EB0F
:101EB0000103C0F2618041F6FF739B1A70EB0103CE
:101EC000C0F29080B2F1010E61F1000CDEF11F034F
:101ED0004FF0000373EB0C03C0F0CE81DFE81EF07F
:101EE0002000A6029A03EA019A039A039A03460283
:101EF0009A039A039A039A039A039A039A0376021F
:101F00009A039A039A039A039A039A039A039A03E9
:101F10009A039A039A039A039A039A039A0316025E
:101F200040F60040C4F20240D0F8D81011F007018A
:101F300000F000840268012903D112F0006240F031
:101F40001D840268022903D112F0005240F0D383AD
:101F500003680268032903D113F0020340F0A98447
:101F6000042903D112F4007240F0D584D0F8F000B7
:101F7000052900F063BC00BF6FF040439B1A70EB73
:101F800001036FDA072940F3CD80B1F5007F80F2BD
:101F9000218181F00803134300F0EC8281F01001ED
:101FA000114340F0378340F60040C4F20240D0F8BD
:101FB000E41001F03001102900F0DA8302682029D2
:101FC00003D112F0005240F09683006810F40050E4
:101FD0001CBF46F60040C0F2DC20302918BF0020AC
:101FE00018E300BF4FF6FF739B1A4FF0000C7CEB19
:101FF000010380F2BB804FF6FF73C0F203039B1A0C
:102000007CEB0103C0F2028182F480330B4300F0C9
:10201000E58282F40032114340F0FC8240F6004039
:10202000C4F20240D0F8DC10C1F30221052900F20D
:10203000AB83DFE811F0390105037903CD03C30356
:10204000070000BFD0F8E810036802689B0701F0A2
:10205000404102D5002900F02C84920500F136841D
:1020600000F037BC6FF078439B1A4FF000038B41B0
:1020700024DB82F480030B4300F0568282F000736D
:102080000B4300F0F98182F08062114340F0C2827C
:1020900040F60040C4F20240D0F8E810026801F0B7
:1020A0003001920440F14C83002940F0498346F608
:1020B0000040C0F2DC2004B080BD00BF82F00063AD
:1020C0000B4300F03B8282F080530B4300F006820A
:1020D00082F00052114340F09D8240F60041C4F26C
:1020E0000241D1F8E000C0F38212042A00F24C83CE
:1020F00048F20000C0F2BB00DFE812F03A03A2028F
:1021000036028C02060000BFD1F8E8200B68086890
:102110009B0702F0404240F10282002A00F0A083B7
:10212000FDE100BF82F080430B4300F0CB8281F0E1
:102130000203134300F08A8281F00401114340F04E
:10214000698240F60040C4F20240D0F8E81000680E
:10215000800301F4407040F10583002840F00283C1
:1021600047F64000C0F27D1004B080BD82F40053F9
:102170000B4300F0C78282F480430B4300F07E8261
:1021800082F40042114340F0458240F60040C4F220
:102190000240D0F8E41001F44011B1F5801F00F0C6
:1021A000C382002900F0808002680068B1F5001F3A
:1021B00003D112F0020240F0538310F400701CBFF0
:1021C00040F60010C0F23D00B1F5401F18BF0020DE
:1021D00004B080BD81F40073134300F0E78181F403
:1021E0008051114340F0168240F60041C4F2024192
:1021F000D1F8E40000F04060B0F1806F00F094820C
:10220000002851D00A68B0F1006FF9E182F4802310
:102210000B4300F0018282F40012114340F0FA8176
:1022200040F60040C4F20240D0F8E81001F0070187
:10223000022900F01D82012900F0DC82002900F053
:1022400011820268032902D112F4003288D1026897
:102250000068042903D112F0020240F0018310F457
:1022600000701CBF40F60010C0F23D00052918BFE9
:10227000002004B080BD00BF82F48052114340F0C2
:10228000C98140F60040C4F20240D0F8E01001F0ED
:10229000E061B1F1007F00F02E82B1F1807F00F0AB
:1022A0006D82002940F0B88204B0BDE8804001F0A2
:1022B000FFB900BF40F60040C4F20240D0F8D81089
:1022C00011F4E07100F02A820268402903D112F073
:1022D000006240F053820268802903D112F000525C
:1022E00040F0098203680268C02903D113F0020399
:1022F00040F0DF82B1F5807F03D112F4007240F02C
:102300000A83D0F8F000B1F5A07F97E240F60040D4
:10231000C4F20240D0F8D81011F4603100F0FE8110
:102320000268B1F5004F03D112F0006240F026823E
:102330000268B1F5803F03D112F0005240F0DB811A
:1023400003680268B1F5C03F03D113F0020340F007
:10235000B082B1F5003F03D112F4007240F0DB828D
:10236000D0F8F000B1F5203F68E200BF40F6004031
:10237000C4F20240D0F8D81011F4606100F0CE81B0
:102380000268B1F5007F03D112F0006240F0F681DF
:102390000268B1F5806F03D112F0005240F0AB81BA
:1023A00003680268B1F5C06F03D113F0020340F077
:1023B0008082B1F5006F03D112F4007240F0AB825D
:1023C000D0F8F000B1F5206F38E200BF40F60040D1
:1023D000C4F20240D0F8D81011F4E04100F09E8120
:1023E0000268B1F5805F03D112F0006240F0C6814F
:1023F0000268B1F5005F03D112F0005240F07B811A
:1024000003680268B1F5405F03D113F0020340F0A6
:102410005082B1F5804F03D112F4007240F07B82FC
:10242000D0F8F000B1F5A04F08E200BF40F6004040
:10243000C4F20240D0F8D81011F0380100F06E81DB
:102440000268082903D112F0006240F09781102938
:1024500000F0518103680268182903D113F00203C8
:1024600040F02782202903D112F4007240F05382F9
:10247000D0F8F0002829E1E140F60041C4F2024121
:10248000D1F8F000D1F8F020920700F4407203D5A3
:10249000B2F5807F00F06181D1F8F000000103D532
:1024A000B2F5007F00F07D80086880034FF00000E7
:1024B00040F1B080B2F5407F40F0AC80C86910F4C4
:1024C000785F00F06181C86947F64001C0F30520DC
:1024D000C0F27D11B1FBF0F004B080BD40F60041C8
:1024E000C4F20241D1F8E000C0F3C202042A00F2B3
:1024F0004B8148F20000C0F2BB00DFE812F0390166
:10250000A10035008B000500D1F8E8200B680868B1
:102510009B0702F0404202D5002A00F0A18180050D
:1025200000F1F681FEE100BF40F60040C4F2024037
:10253000D0F8E400400640F11B8199E040F60041EC
:10254000C4F20241D1F8E00000F00702042A00F2D0
:102550001B8148F20000C0F2BB00DFE812F0090165
:10256000710005005B00770101A8FFF7C5FB01982A
:1025700004B080BD40F60040C4F20240D0F8E8103C
:10258000D0F8F02001F0C001920702D5002900F038
:10259000E480D0F8F020120140F12281402940F07F
:1025A0001F814FF4FA4004B080BD00BF40F60041E7
:1025B000C4F20241D1F8E800D1F8F02000F00800A0
:1025C000920702D5002800F0C880D1F8F01000284A
:1025D00018BF4FF4FA4001F00061AFE140F600414E
:1025E000C4F20241D1F8E40000F04070B0F1807F05
:1025F00000F09A80002800F091800A68B0F1007F16
:102600004FF0000006D112F0020203D00868C0F3B8
:10261000C10050E104B080BD40F60040C4F2024069
:10262000D0F8DC10C1F30231052900F2AD80DFE8FB
:1026300011F0750007007B00CF00C500370100BF17
:1026400001A8FFF787FA019804B080BD40F600406A
:10265000C4F20240D0F8E41001F00301DFE801F019
:10266000028808D004B0BDE8804000F0C1BF00BFC0
:1026700001A8FFF76FFA039804B080BD40F6004050
:10268000C4F20240D0F8E41001F44021B1F5802FEB
:102690004AD0002942D002680068B1F5002F03D16A
:1026A00012F0020240F0DC8010F400701CBF40F613
:1026B0000010C0F23D00B1F5402F18BF002004B05B
:1026C00080BD00BF40F60040C4F20240D0F8E010E8
:1026D00011F460612ED00268B1F5007F02D112F0D2
:1026E00000624BD10268B1F5806F40F0BD8012F0FE
:1026F000005200F0B98001A8FFF7FEFA029804B07A
:1027000080BD00BF40F60040C4F20240D0F8E410A3
:1027100001F44031B1F5803F06D0C9BB04B0BDE83B
:10272000804000F07DBF00BF01A8FFF7E5FA0398E5
:1027300004B080BD04B0BDE8804000F095BF00BF8C
:102740000268920101D5102912D0D0F8F02092072A
:1027500040F1CC80202940F0C9804FF4004004B003
:1027600080BD00BFB0F5007F08D0B0F5807F0BD1F1
:1027700001A8FFF71DF9029804B080BD01A8FFF77A
:10278000E9F9029804B080BD002004B080BD00BF0C
:1027900002680068B1F5003F02D112F002025FD179
:1027A00010F400701CBF40F60010C0F23D00B1F5FF
:1027B000403F18BF002004B080BD00BFD0F8F0003B
:1027C0004FF4FA41000101EAE07004B080BD00BF9F
:1027D000D0F8F0004FF4004101EA803004B080BD31
:1027E0000068802900F400724FF0000008BF48F232
:1027F000120085E004B0BDE8804000F07DBF00BF5E
:10280000D0F8E810036802689B0701F040415BD5EF
:1028100000294ED058E000BF03680268B1F1407F44
:1028200002D113F0020344D1B1F1806F02D112F44E
:10283000007270D1D0F8F000B1F1A06F00F0020288
:102840004FF0000008BF900304B080BDD1F8E8202D
:102850000B6808689B0702F0404257D5002A55D103
:10286000C0F3C10027E000BF03680268B1F5C06F84
:1028700002D113F002031CD1B1F5006F02D112F4A2
:10288000007248D1006810F400301CBF47F64000C9
:10289000C0F27D10B1F5206F18BF002004B080BDDC
:1028A000D0F8E810036802689B0701F040410BD59F
:1028B00051B9C2F3C10049F20001C0F2D03121FA8E
:1028C00000F004B080BD00BF920502D5B1F1804F89
:1028D00021D00068B1F1004F00F400324FF0000049
:1028E00004BF47F64000C0F27D1009E0D0F8F000C8
:1028F000302900F000624FF0000008BF4FF4FA40AA
:10290000002A08BF104604B080BD00BF800509D56D
:10291000B2F1804F06D140F60010C0F23D0004B085
:1029200080BD00BF0868B2F1004F00F400314FF0E5
:10293000000004BF47F64000C0F27D10002908BF28
:10294000084604B080BD00002DE9F0470446006849
:1029500040F62848C101C4F2024807D5D8F8C01093
:10296000A26D21F040411143C8F8C010C00712D039
:10297000E06D052800F25482DFE810F00600B40490
:10298000EA01060006000600D8F8B01021F00701A1
:102990000843C8F8B00000252078800702D42846F4
:1029A0001BE000BF206E4FEAF001052900F23A82D9
:1029B0002846DFE811F00700A304D701070007004D
:1029C000070000BF064648B9D8F8B000216E20F0D5
:1029D00038000843C8F8B00000202E462178490787
:1029E00019D5616E4FEAB111052900F22382DFE8A3
:1029F00011F007008B04BF0107000700070000BFAC
:102A0000054648B9D8F8B000616E20F4E07008437C
:102A1000C8F8B000002035462178090719D5A16E05
:102A20004FEA7121052900F20D82DFE811F007005D
:102A30007304A70107000700070000BF064648B956
:102A4000D8F8B000A16E20F460600843C8F8B00068
:102A500000202E462178C90619D5E16E4FEA3131A2
:102A6000052900F2F781DFE811F007005B048F0110
:102A700007000700070000BF054648B9D8F8B000B6
:102A8000E16E20F4E0400843C8F8B000002035466D
:102A90002178890619D5216F4FEAF131052900F215
:102AA000E181DFE811F00700430477010700070028
:102AB000070000BF064648B9D8F8B000216F20F4DF
:102AC00060300843C8F8B00000202E466178C9067F
:102AD00019D5616F4FEA3161052900F2CB81DFE83A
:102AE00011F007002B045F0107000700070000BF7B
:102AF000054648B9D8F8B800616F20F0E060084397
:102B0000C8F8B80000203546617889061AD5A16F4B
:102B10006FF0010202EB3142022A08D34FEA314141
:102B200029B101292ED104F1300002F07BF90646CB
:102B300048B9D8F8BC00A16F20F440300843C8F869
:102B4000BC0000202E466178490620D5E16F6FF069
:102B5000010202EBB142022A08D34FEAB14129B186
:102B6000012937D104F1300002F05CF9054678B94B
:102B7000D8F8BC00E16F20F440200843C8F8BC003E
:102B8000002004E00120012661784906DED43546A4
:102B90006178090623D5D4F880106FF0010202EBAA
:102BA0003152022A08D34FEA315129B1012939D1D2
:102BB00004F1300002F036F9064688B9D8F8BC00B6
:102BC000D4F8801020F440100843C8F8BC0000205E
:102BD00005E000BF0120012561780906DBD42E46FF
:102BE000A178C90723D0D4F88410002918BFB1F107
:102BF000007F0DD10746D8B9D8F8BC00D4F88410AE
:102C000020F040700843C8F8BC0000200FE000BF6F
:102C1000B1F1807F30D104F1300002F003F90746B2
:102C200030B9E9E701200126A178C907DBD1374691
:102C30006179C90625D5D4F88810002918BFB1F1EB
:102C4000006F0DD10546E8B9D8F8BC00D4F888105B
:102C500020F040600843C8F8BC00002011E000BF2D
:102C6000B1F1806F40F0708004F1300002F0DAF8CA
:102C7000054638B9E8E700BF012001276179C90698
:102C8000D9D43D46D4E9001240F61C47C4F20247AD
:102C9000120508D53A6822F400423A60D4F8C820F8
:102CA0003B681A433A6089031AD5D4F88C104FEA6E
:102CB0003121052900F2E680DFE811F00600440327
:102CC0007800060006000600064650B9D8F8B400A1
:102CD000D4F88C1020F4E0600843C8F8B400002059
:102CE0002E46A17849071BD5D4F890104FEA313110
:102CF000052900F2CF80DFE811F007002B035F0009
:102D000007000700070000BF054650B9D8F8B40017
:102D1000D4F8901020F4E0400843C8F8B400002034
:102D20003546A17889065ED5D4F8A010052900F2B1
:102D3000B980022946D0002802464AD0D4E90013BF
:102D40009B0555D4B4E000BF012001259AE700BFE0
:102D500004F1300002F066F8054600287FF41CAE4E
:102D6000C8E200BF04F1300002F05CF82AE600BFC0
:102D700004F1300002F056F842E600BF04F13000E2
:102D800002F050F85AE600BF04F1300002F04AF8B1
:102D900072E600BF04F1300002F044F88AE600BF9A
:102DA00004F1300002F03EF8A2E600BF04F130006A
:102DB00002F038F888E700BF04F1300002F032F882
:102DC000A2E700BF04F1080001F0B6FF00280246A8
:102DD000B4D1D8F8C000D4F8A01020F00700084300
:102DE000C8F8C00000202A46D4E900139B055FD52F
:102DF000D4F8A43043F00806082E0BD1814660B900
:102E0000D8F8C00020F008001843C8F8C00000201F
:102E10004EE000BF01204FF0010989014BD4A6E02C
:102E20000125B9E501200126217849073FF5D9ADF3
:102E3000F1E500BF01200125217809073FF5EFAD3D
:102E400007E600BF012001262178C9063FF505AE3F
:102E50001DE600BF01200125217889063FF51BAE44
:102E600033E600BF012001266178C9063FF531AE87
:102E700049E600BF01200125617889063FF547AE8C
:102E800060E600BF01200126A17849073FF52CAF7D
:102E900046E700BF01200125A17889063FF544AF30
:102EA000A1E700BF01200122D4E900139B059FD4B4
:102EB000914689015BD54FF60846CFF6FF768246EC
:102EC000B85940F00100B851FDF7A6FD054600BF16
:102ED000B859C00708D1FDF79FFD401B0228F7D95C
:102EE0000320032144E000BF5046BAF1000F5146D1
:102EF0003ED1D8F8C80010F4407018D0D4F8BC10F7
:102F0000884211D0D8F8C800D8F8C81020F4407012
:102F100041F48031C8F8C810D8F8C81021F48031C5
:102F2000C8F8C810C8F8C800C00740F01D82D4F81F
:102F3000BC0039684FF6CF7300F4407221F47C5125
:102F4000C0F2FF0303EA1013B2F5407F08BF194334
:102F50003960D8F8C8106FF31F3021F44071C8F8F9
:102F6000C810D8F8C8100843C8F8C800002049465F
:102F7000226853011CD5D4F898306FF0010707EB95
:102F80003317022F0AD34FEA33173FB1012F17D15E
:102F9000D8F8007047F40037C8F80070054640B90B
:102FA000D8F8C00020F030001843C8F8C000002056
:102FB0000D46510208D42E46E178090714D451E099
:102FC000012001255102F6D5D4F89C10402921D0CA
:102FD00091BBD8F8001041F40031C8F80010064643
:102FE000F8B1E17809073DD5D4F8AC10042900F216
:102FF0005F81DFE811F005003F0127002B002B0067
:10300000D8F8001041F40031C8F80010054650BB54
:103010001EE000BF04F1080001F08EFE0028064605
:10302000DFD1D8F8BC00D4F89C1020F04000084351
:10303000C8F8BC000020BEE701200126E17809079E
:10304000D2D40FE004F1300001F0ECFE054650B997
:10305000D8F8B800D4F8AC1020F007000843C8F83E
:10306000B80000203546E178C90627D5D4F8B0105D
:103070004FEAF101042900F21F81DFE811F0050099
:1030800005010F0013001300D8F8001041F40031BF
:10309000C8F80010064690B906E000BF04F1300001
:1030A00001F0C0FE064650B9D8F8B800D4F8B01008
:1030B00020F038000843C8F8B80000202E46E17818
:1030C000890627D5D4F8B4104FEAB111042900F2CB
:1030D000F780DFE811F00500E3000F001300130094
:1030E000D8F8001041F40031C8F80010054690B936
:1030F00006E000BF04F1300001F094FE054650B92F
:10310000D8F8B800D4F8B41020F4E0700843C8F838
:10311000B80000203546E17849061BD5D4F8B81030
:103120004FEA7121052900F2D580DFE811F0070090
:103130001701CD0007000700070000BF064650B981
:10314000D8F8B800D4F8B81020F460600843C8F884
:10315000B80000202E46217989071BD5D4F8A81085
:10316000032900F28380DFE801F00903770900BF3B
:10317000D8F8001041F40031C8F80010054650B9E5
:10318000D8F8BC00D4F8A81020F003000843C8F811
:10319000BC00002035462179490721D5D4F8941088
:1031A00059B1B1F5007F0BD0B1F5807F3CD1D8F893
:1031B000001041F40031C8F80010064688B905E057
:1031C00004F1080001F0B8FD064650B9D8F8C00077
:1031D000D4F8941020F440700843C8F8C0000020D0
:1031E0002E462179C90624D5D4F8C410302909D037
:1031F000202909D010292DD1D8F8001041F4003130
:10320000C8F80010B0B904E004F1300001F00AFE83
:1032100080B9D8F8BC00D4F8C41020F030000843BE
:10322000C8F8BC0005E000BF012001262179C906CD
:10323000DAD430462179090758BFBDE8F087D8F8BD
:10324000C010D4F8C02021F0C0011143C8F8C0104C
:10325000BDE8F0870120EDE704F1080001F06CFD06
:10326000002805467FF497AF8AE700BF01200125BB
:1032700091E700BF04F1080001F05EFD002805465B
:103280007FF4F1AEE4E600BF04F1080001F054FD64
:10329000002806467FF413AF06E700BF04F10800DC
:1032A00001F04AFD002805467FF435AF28E700BF4E
:1032B00001200125D7E600BF01200126FFE600BF5F
:1032C0000120012527E700BF04F1300001F0AAFD2D
:1032D00034E700BF01200126217989073FF53EAF81
:1032E00058E700BF04F1080001F026FD054600285C
:1032F0007FF452ABE06DFFF747BB00BF04F108005D
:1033000001F01AFDFFF75EBB04F1080001F014FDA7
:10331000FFF776BB04F1080001F00EFDFFF78EBB4E
:1033200004F1080001F008FDFFF7A6BB04F1080056
:1033300001F002FDFFF7BEBB04F1080001F0FCFC48
:10334000FFF7D6BB04F1080001F0F6FCFFF7BCBCA8
:1033500004F1080001F0F0FCD6E400BF04F108001D
:1033600001F0EAFCEAE600BFFDF756FB054641F234
:10337000883600BFD8F8C80080073FF5D8ADFDF704
:103380004BFB411B0320B1424FF00301F2D9EFE5A3
:103390002DE9F04381B0002800F0D08042F200080F
:1033A000C4F202080446D8F800000D4600F00F00F1
:1033B00081420DD9D8F8000020F00F002843C8F84A
:1033C0000000D8F8000000F00F00A84240F0B680DE
:1033D000206840F62047C106C4F202470CD5616957
:1033E0003A68702303EA1222914205D93A6822F41E
:1033F000E04242EA0121396001070CD521693A68AF
:10340000702303EA1212914205D93A6822F4E0626D
:1034100042EA0111396041070AD5E1683A6802F0D1
:103420007002914204D93A6822F070021143396067
:1034300081070AD5A1683A6802F00F02914204D9C7
:103440003A6822F00F0211433960C00768D1206842
:1034500081070AD5A1683A6802F00F02914204D2AE
:103460003A6822F00F0211433960D8F8001001F0D9
:103470000F018D420CD2D8F8001021F00F01294322
:10348000C8F80010D8F8001001F00F01A94255D17A
:1034900041070AD5E1683A6802F07002914204D20D
:1034A0003A6822F070021143396001070CD5216996
:1034B0003A68702303EA1212914205D23A6822F464
:1034C000E06242EA01113960C0060CD560693968D2
:1034D000702202EA1121884205D2396821F4E041C4
:1034E00041EA0020386000F007F9396849F6900297
:1034F00001F00F01C0F60002525C40F20401C2F27A
:103500000001096840F2240320FA02F2C2F200032B
:1035100008461A6001B0BDE8F043FDF7C1BA00BF2C
:10352000606857F8201C01280CD0022804D003281A
:103530005AD1890102D507E0890305D4012001B0E1
:10354000BDE8F0838905F9D557F8041C21F0030183
:10355000084347F8040CFDF75FFA61680646032943
:1035600041F2883939D0022929D0012910D100BF70
:1035700057F8040C00F0180008283FF468AFFDF776
:103580004BFA801B48454FF00300F1D90DE000BF16
:1035900057F8040C10F0180F3FF459AFFDF73CFA40
:1035A000801B48454FF00300F2D901B0BDE8F0831D
:1035B000FDF732FA801B48454FF00300F5D857F865
:1035C000040C00F018001028F2D140E7FDF724FAAF
:1035D000801B48454FF00300E7D857F8040C00F073
:1035E00018001828F2D132E78907A7D5ACE7000008
:1035F00080B500F081F840F62041C4F2024109682C
:1036000049F6900201F00F01C0F60002515C01F092
:103610001F01C84040F22401C2F20001086080BDD1
:1036200080B500F069F840F62041C4F202410A6812
:1036300049F6900302F00F02C0F600039A5C02F014
:103640001F02D04040F22402C2F20002106009685A
:1036500049F6A002C1F30211C0F60002515C01F06C
:103660001F01C84080BD000080B500F045F840F65D
:103670002041C4F202410A6849F6900302F00F02A9
:10368000C0F600039A5C02F01F02D04040F2240210
:10369000C2F200021060096849F6A002C1F30221DB
:1036A000C0F60002515C01F01F01C84080BD00005F
:1036B00080B500F021F840F62041C4F202410A68CA
:1036C00049F6900302F00F02C0F600039A5C02F084
:1036D0001F02D04040F22402C2F2000210600968CA
:1036E00049F6A002C1F30231C0F60002515C01F0BC
:1036F0001F01C84080BD000080B540F60041C4F203
:103700000241C86900F01800082802BF40F6001006
:10371000C0F23D0080BDC86910F0180F34D0C869F0
:1037200000F01800102802BF47F64000C0F27D10DC
:1037300080BDC86900F01800182849F20000C0F2E6
:10374000D03066D1D1F828E08A6AC2F3052C8A6AA3
:103750008B6BBCF1000F04BF002080BDDB08D206DC
:1037600003EAE2726FF35F3200EE102A0EF00302FA
:10377000B8EE400A032A15D0012A17D10A6892062A
:1037800018D49FED251A1DE00868800649F2000054
:10379000C0F2D03058BF80BD0968C1F3C101C84034
:1037A00080BD00BF9FED1B1A0CE000BF9FED1B1AF0
:1037B00008E000BF0A68C2F3C102D04001EE100A5F
:1037C000B8EE411A02EE10CA486BB8EE422A6FF307
:1037D0005F2081EE021A02EE100A9FED113AB8EE58
:1037E000422A20EE030A486B30EE020AB7EE002AA6
:1037F000C0F3462030EE020A013021EE000A01EE4D
:10380000100AB8EE411A80EE010ABCEEC00A10EEB2
:10381000100A80BD20BCBE4B0024744C0024744AA6
:1038200000000039002804BF012070472DE9F04353
:1038300081B040F6004740F6F0490446C4F2024722
:10384000C4F20249F86959F8C81C227800F0180837
:10385000D00601F003062AD5B8F1080F1CD0B8F144
:10386000180F08BF022E17D0E1693868002900F050
:103870006D8140F480703860FDF7CEF8054600BFDA
:10388000386880050CD4FDF7C7F8401B02284FF0BC
:103890000300F5D958E200BFE069002800F0E48099
:1038A000B869216A20F47C1040EA0140B8612078B0
:1038B000C00719D0B8F1100F12D0B8F1180F08BF17
:1038C000032E0DD061683868B1F5A02F60DA0029A9
:1038D00000F0B081B1F5803F00F0CE819EE100BFE5
:1038E0006068002800F0C0802078800777D5B8F1A4
:1038F000000F21D0E068B8F1180F08BF012E55D095
:103900003968002800F06681206921F01801084319
:103910003860386840F001003860FDF77DF80546F2
:103920003868800754D4FDF777F8401B02284FF021
:103930000300F5D908E200BFE068002800F0948099
:103940003968206901F01801814231D0396821F0CD
:10395000180108433860FFF7CFFE396A49F6900234
:1039600001F00F01C0F60002515C40F2240201F0A8
:103970001F0120FA01F140F20400C2F200000068C9
:10398000C2F200021160FDF78BF800286CD10FE045
:1039900000F06A81B1F5A81F40F0408140F480201A
:1039A0003860386840F4801064E100BF00285BD0C4
:1039B000FDF732F8054600BF3868800708D4FDF7E8
:1039C0002BF8401B0228F7D9032001B0BDE8F08393
:1039D0003869616920F4FE0040EA014038612078CE
:1039E000000745D4207840075CD42078800600F199
:1039F0007F80A56AA5B3B8F1180F40F0C98059F8C7
:103A0000C81C59F8BC0C012D2ED0E26A01F003034A
:103A1000934229D1C1F30521226B914224D1626BDB
:103A200001466FF35F21013A91421DD1A16BC0F3B2
:103A3000462201398A4217D1E16BC0F306420139AF
:103A40008A4211D1216CC0F30660013988420BD142
:103A500059F8B80CE16CC0F3CC00884240F0E88122
:103A6000002001B0BDE8F083012001B0BDE8F08383
:103A7000A169D9F80000002952D040F08060C9F84F
:103A80000000FCF7C9FF0546D9F800000001A9D4E1
:103A9000FCF7C2FF401B0228F6D9032001B0BDE8A5
:103AA000F08300BF4FF62446CFF6FF76B859C00723
:103AB00012D1B85940F00100B851FCF7ADFF0546EE
:103AC000B859C00708D1FCF7A7FF401B02284FF0E8
:103AD0000300F5D938E100BFA168D9F80000042936
:103AE00046DC002900F0EA80012900F01781D5E0CA
:103AF000616A3868002900F07F8040F480503860A7
:103B0000FCF78AFF054600BF386880043FF571AFB7
:103B1000FCF782FF401B02284FF00300F4D913E1A9
:103B200020F08060C9F80000FCF776FF054600BF72
:103B3000D9F8000000017FF555AFFCF76DFF401B81
:103B400002284FF00300F3D9FEE000BF20F480709C
:103B50003860FCF761FF0546386880057FF5A7AE41
:103B6000FCF75AFF401B02284FF00300F4D9EBE0AA
:103B7000052900F0C780852940F0908040F00400BE
:103B8000C9F80000D9F8000040F08000C2E000BF92
:103B9000386820F080703860FCF73EFF022D054643
:103BA0000CD100BF3868800140F1D280FCF734FFAF
:103BB000401B02284FF00300F4D9C5E038688001AB
:103BC00040F12881FCF728FF401B02284FF003003A
:103BD000F4D9B9E021F001003860FCF71DFF05467B
:103BE000386880077FF5FBAEFCF716FF401B022804
:103BF0004FF00300F4D9A7E020F480503860FCF7C0
:103C00000BFF0546386880047FF5F3AEFCF704FF30
:103C1000401B02284FF00300F4D995E020F48030D7
:103C20003860386820F480203860386820F48010CC
:103C300024E000BF20F480303860386820F4801021
:103C40003860386820F480203860FCF7E5FE0546CF
:103C5000386880037FF548AEFCF7DEFE401B642821
:103C60004FF00300F4D96FE040F4802038603868EA
:103C700020F480103860386840F480303860FCF7F9
:103C8000CBFE0546386880033FF52EAEFCF7C4FE38
:103C9000401B64284FF00300F4D955E020F00100E8
:103CA000C9F80000D9F8000020F00400C9F80000AD
:103CB000D9F8000020F0800032E000BF20F00100C1
:103CC000C9F80000D9F8000020F08000C9F8000011
:103CD000D9F8000020F00400C9F80000FCF79CFEB1
:103CE000054641F2883600BFD9F8000080077FF50D
:103CF0007CAEFCF791FE401BB0424FF00300F3D9BD
:103D000022E000BF40F00400C9F80000D9F800002C
:103D100020F08000C9F80000D9F8000040F0010050
:103D2000C9F80000FCF778FE054641F2883600BF6E
:103D3000D9F8000080073FF558AEFCF76DFE401B38
:103D4000B0424FF00300F3D901B0BDE8F08300BFEB
:103D500059F8C80C43F6037104F12C0388430ECBC9
:103D6000084340EA0220A16B49F8C80C4FF47E4298
:103D700002EB4121E26B581E4FF4FE0389B203EBC4
:103D800002426FF35F20084402F4FE01226C4FF000
:103D9000FE4303EB0262084402F0FE41084449F886
:103DA000BC0C59F8C80C20F0100049F8C80CE06CA5
:103DB000C00049F8B80C59F8C80C40F0100049F898
:103DC000C80C59F8C80C616C20F00C00084349F885
:103DD000C80C59F8C80CA16C20F02000084349F821
:103DE000C80C59F8C80C40F4803049F8C80C386841
:103DF00040F080703860FCF70FFE044638688001A0
:103E00003FF52EAEFCF708FE001B02284FF0030022
:103E1000F4D999E759F8C80C4FF6FC71CFF6F87150
:103E2000084049F8C80C002001B0BDE8F08300BF8D
:103E300059F8C80C20F0100049F8C80CFCF7ECFD4C
:103E40000546FCF7E9FDA842FBD0E06CC00049F84C
:103E5000B80C59F8C80C40F0100049F8C80C002004
:103E600001B0BDE8F0830000002804BF01207047C6
:103E70002DE9F04381B0016844F6004441F08053DD
:103E8000C5F201040022A342826203D1C2680F2A54
:103E900001D949E0C268C36B012404EB5313083213
:103EA000D20803FB02F244F60043C4F20103994234
:103EB0000AD043F60043C5F2000303F58833994264
:103EC00004D1082A30D801E0082A2DD842F6FF7321
:103ED000C4F20103994213DD43F20003C4F201036B
:103EE00099421FD043F60003C5F20003994219D04E
:103EF00043F20003C5F20103994213D00CE000BF66
:103F000043F60003C4F2000399420BD043F600438A
:103F1000C4F20003994205D043F60043C5F2000302
:103F2000994205D1102A03D9012001B0BDE8F083E0
:103F300090F8891031B9002180F88810044600F00B
:103F400085F82046022180F88910D0E90019D0F8C0
:103F500018800C68B8F1806F24F001040C608C6844
:103F600004F4F81C10D1B9F1000F05D0B9F5800F99
:103F70000AD1846B74B903E0846BB4F1805F06D11D
:103F80000C6844F480540C605FEA492402D44FF07A
:103F9000010E0FE0C468072C0AD3D1F800E0066DCB
:103FA0002EF480752E430E604FF0000E07E000BF28
:103FB0004FF0000E0C6824F480740C60C468C6696D
:103FC000876AC36B46EA0C0637433B432343856845
:103FD000D0E904628B60D0E90D34476ABEF1000F6E
:103FE00043EA070343EA0403D0E9124743EA06031E
:103FF000066A42EA030242EA060242EA070242EA8B
:104000000502836D42EA0402C76D42EA0302036EB1
:1040100042EA070242EA030242EA080242EA0902CD
:10402000CA600A6D22F001020A6505D1CA68436DB3
:1040300022F000421A43CA600021C0F88C1001210E
:1040400080F88910002001B0BDE8F083B0B5BCB0A5
:10405000044602A800250830C8213B95CDE9395512
:10406000CDE93755FCF77CFA206843F60001C4F22D
:104070000001884202D03CB0B0BD00BF4FF080507C
:10408000029002A80395FEF75FFC002818BFFCF71A
:10409000B3FB40F68C40C4F20240016941F4804118
:1040A0000161016901F4804101910199016841F0C8
:1040B00002010160006837A900F002000190019838
:1040C0004FF460403790022038900020CDE939004D
:1040D00005203B9040F20040C4F20220FCF7D2FBE6
:1040E0003CB0B0BD2DE9F047D0F800901D46174612
:1040F00004460E46FCF790FC94F8891001290DD176
:104100008046002E4FF0010018BF002F02D1BDE8FD
:10411000F08700BF94F88800012803D10220BDE891
:10412000F08700BF01210320002284F8881084F862
:104130008900C4F88C206666A4F86870A4F86A70D8
:10414000E266A4F87020A4F87220A068A267B0F517
:10415000C02F2068E26705D1016841F40061016069
:1041600004E000BFC26861F35242C26041684FF68A
:10417000FF72914339444160016841F001010160DF
:104180006168B1F5800F03D1016841F400710160ED
:10419000E168102916D343F2FF71C5F2000188428D
:1041A0005CDC43F60001C4F20001884268D043F6AB
:1041B0000041C4F20001884262D043F20001C4F21F
:1041C00001015BE0072900F2A780B4F86A0000282B
:1041D00000F0D4804FF6FE706E1CA0F1020A471C5E
:1041E00010E000BF616E51F8042B02625046616618
:1041F000B4F86A100844A4F86A00B4F86A00002809
:1042000000F0BC8020684169890709D4FCF704FCF0
:10421000002EF2D0A0EB0800A842EED350E000BF81
:10422000B4F86A10042902D3E16B4129DAD2B4F858
:104230006A1001290AD9E26B616E42B131F8020BB2
:10424000A9F820004FF6FE70D1E700BF616E097833
:1042500080F82010606E411C3846C8E743F6000124
:10426000C5F2000188420BD043F20001C5F2010102
:10427000884205D043F60041C5F2000188424BD187
:10428000B4F86A00002879D0681C0FD130E000BF74
:10429000616E51F8042B02626166B4F86A0001385D
:1042A000A4F86A00B4F86A00002867D02068416961
:1042B0008907EDD4FCF7B0FBA0EB0800A842F1D3CE
:1042C000204600F025FED4F88C0040F48070C4F83D
:1042D0008C00012084F88900002084F888000320E5
:1042E000BDE8F087FCF798FBB4F86A00002845D0D9
:1042F000206841698907F5D5616E51F8042B026287
:104300006166B4F86A000138A4F86A00B4F86A007B
:104310000028EDD132E000BFB4F86A0070B34FF668
:10432000FE706E1C471C0EE0606E30F8021BA9F890
:10433000201039466066B4F86A000844A4F86A00A0
:10434000B4F86A00D0B121684869800708D4FCF746
:1043500063FB002EF4D0A0EB0800A842F0D3AFE737
:10436000B4F86A000128DFD9E26B606E002ADCD065
:1043700050F8042B0A624FF6FE71DBE7681C13D07D
:1043800020684069000713D4FCF746FBA0EB080047
:10439000A842F5D3D4F88C0040F02000C4F88C007B
:1043A00006E000BFFCF738FB206840690007F9D53C
:1043B000204600F0ADFD012084F88900002084F83B
:1043C0008800D4F88C00002818BF0120BDE8F087D1
:1043D0002DE9F04F81B0D0F80090C66B9A46174691
:1043E00004460D46FCF718FB94F8891001290FD1FB
:1043F00080464FF0010025B1002F18BFBAF1000F21
:1044000002D101B0BDE8F08F94F88800012803D1F3
:10441000022001B0BDE8F08F012084F8880005205B
:10442000002184F88900C4F88C10E766A4F872A013
:10443000A4F870A06566A4F86AA02068A4F868A033
:10444000A167E167C168102721F4C021C16043F270
:10445000FF71C5F20001884210DC43F60002C4F28D
:10446000000290421DD043F60042C4F20002904286
:1044700017D043F20002C4F201020FE043F600023B
:10448000C5F2000290420CD043F60042C5F2000291
:10449000904206D043F20002C5F20102904218BFDA
:1044A000082742684FF6FF739A43524442600268FD
:1044B00042F0010202606268B2F5800F4FF0010223
:1044C00003D1036843F400730360E36802EB561200
:1044D000102B17D3884200F39D8043F60001C4F2ED
:1044E00000010A9B884200F0A88043F60041C4F214
:1044F0000001884200F0A18043F20001C4F20101F2
:1045000099E000BF072B0A9B00F200814FF6FF7174
:104510001FFA82F9012003F1010BA1F1030C012321
:1045200056460FE04FF0000AB3B21FFA8AF0002B94
:1045300018BF012346EA0A01002818BF0120090418
:1045400000F0568121681FFA8AF2DB074D6918BF17
:1045500015F0020312D017FA86F393420ED9636E58
:104560001B7881F82030636E216801336366B4F8EC
:104570006A30013BA4F86A30B4F86A604B69C0073E
:10458000D0D04869C00724D14A451DD213F4004059
:104590001AD091F83000E16E0870E06E2168421C7C
:1045A000E26691F830104170E06E2168421CE266CC
:1045B00091F830104170E06E2168421CE26691F87B
:1045C0003010417060460AE0032A13D813F4C0404B
:1045D00010D091F83000E16E08704FF6FF70E16E78
:1045E0000131E166B4F872100844A4F87200B4F81E
:1045F00072A099E76546FCF70FFABBF1000F07D0F0
:104600000A99A0EB08008842AC46FFF48DAF69E040
:10461000AC4689E743F60001C5F200010A9B8842D7
:104620000BD043F20001C5F20101884205D043F6E8
:104630000041C5F20001884268D11FFA82FBBD0823
:10464000012003F10109012356460FE04FF0000A53
:10465000B3B21FFA8AF0002B18BF012346EA0A0101
:10466000002818BF0120090400F0C28021681FFA49
:104670008AF2DB074F6918BF17F002030FD015FA53
:1046800086F393420BD9636E53F8047B0F62636623
:10469000B4F86A30013BA4F86A30B4F86A604B6938
:1046A000C007D3D04869C00704D15A4510D213F4CB
:1046B00000400DD0086BE16E41F8040BE166B4F8E0
:1046C00072000138A4F87200B4F872A0C0E700BF0D
:1046D000FCF7A2F9B9F1000FBAD00A99A0EB0800D3
:1046E0008842B5D3204600F013FCD4F88C0040F487
:1046F0008070C4F88C00012084F88900002084F8C0
:104700008800032001B0BDE8F08F00BF4FF6FF71B5
:104710001FFA82FB7F0801205A1CA1F1010C012322
:10472000564600920FE000BF4FF0000AB3B21FFAE6
:104730008AF0002B18BF012346EA0A01002818BF9F
:104740000120090454D022681FFA8AF1DB07556959
:1047500018BF15F0020310D017FA86F38B420CD95C
:10476000636E33F8026BA9F820606366B4F86A30B0
:10477000013BA4F86A30B4F86A605369C007D3D02B
:104780005069C00716D159450ED213F400400BD022
:10479000B9F83010E06E20F8041BB9F8301020F89A
:1047A000021C61460DE000BF012913D113F4005033
:1047B00010D000BFB9F83010E06E20F8021B4FF6A1
:1047C000FF71E066B4F872000844A4F87200B4F80F
:1047D00072A0ABE76546FCF71FF9009931B10A9961
:1047E000A0EB08008842AC46A0D37BE7AC469DE72F
:1047F0000A9D681C14D000BF20684069000713D4CC
:10480000FCF70AF9A0EB0800A842F5D3D4F88C0015
:1048100040F02000C4F88C0006E000BFFCF7FCF874
:10482000206840690007F9D5204600F071FB01209F
:1048300084F88900002084F88800D4F88C000028CF
:1048400018BF012001B0BDE8F08F0000042888BF28
:104850007047DFE800F0031B13352D004EF2100007
:10486000CEF20000016821F00401016040F6E4404E
:10487000C4F20240016821F00C0120E04EF2100069
:10488000CEF200000168022206E000BF4EF21000E6
:10489000CEF200000168012221F00401016040F61F
:1048A000E440C4F20240016862F3830107E000BF04
:1048B0004EF21000CEF20000016841F004010160E8
:1048C00070470000411E0020B0EB116F1CBF01209B
:1048D00070474EF21002CEF20002516090601168F3
:1048E00041F00301116070474EF21000CEF200005B
:1048F0000068400744BF0420704740F6E440C4F21B
:104900000240006802A100F00C000858704700BF88
:104910000000000001000000020000000000000094
:1049200010B5D8B10446D0F8880028B9002084F822
:104930008400204600F026F82420C4F8880020686F
:10494000A16A0268002922F0010202601CBF204611
:1049500000F008FC204600F02FFD08B1012010BD3A
:104960002168486820F490404860886820F02A0058
:104970008860086840F0010220460A60BDE81040E7
:1049800000F064BC70470000FEE7000070B584B022
:104990000546402040F20044ADF804000020C4F277
:1049A00002248DF8060020464FF480510022FCF7C7
:1049B0002DF801A9284603224FF0FF33FFF792FBA1
:1049C00020464FF480510122FCF720F84FF4A070EC
:1049D000ADF807000F2620464FF4805100228DF8D5
:1049E0000960FCF713F80DF10701284603224FF088
:1049F000FF33FFF777FB20464FF480510122FCF78D
:104A000005F84FF45460ADF80A0020464FF4805189
:104A100000228DF80C60FBF7F9FF0DF10A01284622
:104A200003224FF0FF33FFF75DFB20464FF4805128
:104A30000122FBF7EBFF4FF49250ADF80D0020463A
:104A40004FF4805100228DF80F60FBF7DFFF0DF16E
:104A50000D01284603224FF0FF33FFF743FB2046AA
:104A60004FF480510122FBF7D1FF04B070BD00006C
:104A7000B0B584B00446412040F200458DF80D00E9
:104A80000020C4F202258DF80E108DF80F008DF86D
:104A90000C00ADF80A0028464FF480510022FBF7C5
:104AA000B5FF4FF0FF3C0DF10D010DF10A0220465C
:104AB0000323CDF800C0FFF78BFC28464FF480514C
:104AC0000122FBF7A3FF9DF80C0004B0B0BD00006D
:104AD000B0B582B040F2004504464020C4F2022541
:104AE0008DF805008DF806108DF8072028464FF444
:104AF00080510022FBF78AFF0DF1050120460322B9
:104B00004FF0FF33FFF7EEFA28464FF480510122B1
:104B1000FBF77CFF02B0B0BD40F22002C2F20002FF
:104B20001268D1E9003CC0E900234B890C22C0E99E
:104B300004320A898989C0F808C081614FF40041B4
:104B4000C1610021C2604162FFF7EABE40F2B46079
:104B5000C2F20000FFF71ABF2DE9F04F83B040F218
:104B6000B46540F2280A70A71824C2F20005C2F208
:104B7000000A4FF0000B16E090218DF8060064202B
:104B80008DF805108DF80700002000210DF10502B9
:104B9000032303F0A3FF0AF80B800BF1010BBBF119
:104BA000040F00F0B58017F80B2028461221FFF7FC
:104BB0008FFF02940298411E029160B10298411E3B
:104BC000029140B10298411E029120B10298411E0B
:104BD00000280291EED128461321FFF749FF1AF869
:104BE0000B1000F00F088845D7D088EA0106F007BF
:104BF0004FEA8B0924D0002003F05CFF00B35FEA8A
:104C0000C87009F124000DD190218DF806006420B0
:104C10008DF805108DF80700002000210DF1050228
:104C20000BE000BF80218DF802108DF803000020FA
:104C300000210DF102028DF80400032303F04EFF62
:104C4000B00723D5002003F035FFF8B15FEA887084
:104C500009F125000CD490218DF8060064208DF810
:104C600005108DF80700002000210DF105020AE073
:104C700080218DF8030000208DF802108DF80400CB
:104C800000210DF10202032303F028FF700723D552
:104C9000002003F00FFFF8B15FEA487009F1260029
:104CA0000CD490218DF8060064208DF805108DF845
:104CB0000700002000210DF105020AE080218DF897
:104CC000030000208DF802108DF8040000210DF182
:104CD0000202032303F002FF30077FF55CAF0020E0
:104CE00003F0E8FE00283FF456AFB8F1080F09F1D1
:104CF0002700FFF441AF80218DF8030000208DF8DC
:104D000002108DF8040000210DF1020240E700BFFF
:104D100040F2B460C2F2000012210F22FFF7D8FE69
:104D200003B0BDE8F08F00BF0E0D0B07FEE70000DB
:104D3000FEE700007047000070B540F62C46C4F254
:104D4000024656F82C1C044621F0806046F82C0CD4
:104D5000FBF762FE054600BF56F82C0C000105D596
:104D6000FBF75AFE401B0228F6D958E0306843F69C
:104D70000371884394E80E00084340EA0220E1688A
:104D800030604FF47E4202EB41212269581E4FF4FD
:104D9000FE0389B203EB02426FF35F20084402F482
:104DA000FE0162694FF0FE4303EB0262084402F029
:104DB000FE41084430613068A16920F00C000843CE
:104DC00030603068E16920F0200008433060606A9C
:104DD00031680843306030684FF6F87120F01000F9
:104DE00030607069226A884340EAC20070613068AE
:104DF00040F01000306056F82C0C40F0806046F80F
:104E00002C0CFBF709FE044656F82C0C000144BF9D
:104E1000002070BDFBF700FE001B0328F4D3032025
:104E200070BD000070B540F63046C4F2024656F838
:104E3000301C044621F0805046F8300CFBF7ECFDA6
:104E4000054600BF56F8300C800005D5FBF7E4FDA1
:104E5000401B0228F6D958E0306843F603718843B6
:104E600094E80E00084340EA0220E16830604FF405
:104E70007E4202EB41212269581E4FF4FE0389B2A3
:104E800003EB02426FF35F20084402F4FE01626903
:104E90004FF0FE4303EB0262084402F0FE41084477
:104EA00070613068A16920F00C0008433060306800
:104EB000E16920F0200008433060606A31680843EF
:104EC000306030684FF6F87120F010003060B06943
:104ED000226A884340EAC200B061306840F01000A6
:104EE000306056F8300C40F0805046F8300CFBF73C
:104EF00093FD044656F8300C800044BF002070BD7E
:104F0000FBF78AFD001B0328F4D3032070BD0000CB
:104F1000016840F26F32D1F814C08B6943F0080386
:104F20008B618B6943F010038B610B6823F00103E5
:104F30000B600B6923EA02020A618A6822F440428C
:104F40008A6090F88920042A18BF1CF0200209D03A
:104F5000D0F88C2042F08002C0F88C208A6942F0A0
:104F600020028A6190F88920032A18BF1CF04002B1
:104F70000CD15FEA8C5216D45FEACC5220D40021C7
:104F8000A0F86A10A0F87210704700BFD0F88C200B
:104F900042F00402C0F88C208A6942F040028A6123
:104FA0005FEA8C52E8D5D0F88C2042F00102C0F8BC
:104FB0008C208A6942F400728A615FEACC52DED5A5
:104FC000D0F88C2042F00802C0F88C208A6942F4A4
:104FD00080728A610021A0F86A10A0F872107047F0
:104FE00070470000FBF728BDB0B59CB040F6140434
:104FF00008A85021C4F20244FBF7B2FA0020CDE920
:105000000600CDE90400CDE9020054F8040C20F0BC
:10501000300044F8040C54F8040C00F03000019007
:1050200001982068000709D4206800075CBF206849
:105030005FEA007002D420680007F2D54FF4805177
:1050400011914FF4807130200F912021012208909E
:1050500010910221CDE914200420CDE91701082583
:10506000002408A8CDE9121116911995CDE91A442A
:10507000FEF7D8FB10B172B6FEE700BF1F2002900A
:105080000320CDE9030502A80421CDE905440794D6
:10509000FEF77EF910B172B6FEE700BF42F20000E3
:1050A000C4F202000168022262F3051101601CB023
:1050B000B0BD00004EF6885CCEF2000CDCF80010AB
:1050C000012241F47001CCF8001040F60041C4F216
:1050D00002410A600022CA610A620B684EF6E320B0
:1050E000CEF6E2201840086040F28020C0F20110A5
:1050F0008A62CA620A6348638A63C8630A6448644E
:105100008A64086820F4802008600A654FF0006017
:1051100042F21C01C4F202014CF8800C51F8040C5C
:10512000420F062A05D800F06040B0F1404F18BF8A
:1051300070470868C0070BD042F63B20C0F6190044
:1051400041F8100C46F67F60C4F65D4041F8100C43
:10515000086840F002000860086840F0010008603C
:1051600070470000816A0A070CD4CA0715D18A0764
:105170001ED44A0727D4CA0630D48A0639D44A0630
:1051800042D457E00268D0F838C0536823F4004393
:1051900043EA0C035360CA07E9D00268D0F82CC078
:1051A000536823F4003343EA0C0353608A07E0D5C5
:1051B0000268D0F830C0536823F4803343EA0C030C
:1051C00053604A07D7D50268D0F834C0536823F437
:1051D000802343EA0C035360CA06CED50268D0F898
:1051E0003CC0936823F4805343EA0C0393608A061F
:1051F000C5D50268D0F840C0936823F4005343EA51
:105200000C0393604A0615D5D0F800C0436CDCF857
:105210000420B3F5801F22F4801242EA0302CCF886
:10522000042007D1DCF80420836C22F4C0021A4366
:10523000CCF80420090658BF70470168C06C4A6862
:1052400022F400221043486070470000B0B582B0DD
:1052500004460020C4F89000FBF7DEFB21680546F9
:105260000A68120737D56FF07E4C20464FF40011C4
:1052700000222B46CDF800C000F0BCF950B300BFAF
:10528000206850E8000F216820F0800041E800020B
:10529000DAB1206850E8000F216820F0800041E872
:1052A000000292B1206850E8000F216820F08000D1
:1052B00041E800024AB1206850E8000F216820F060
:1052C000800041E80002002ADAD103202021882250
:1052D0006BE000BF2168086840075DD56FF07E4C29
:1052E00020464FF4800100222B46CDF800C000F08C
:1052F00081F9002850D000BF206850E8000F2168D5
:1053000020F4907041E80002BAB3206850E8000F22
:10531000216820F4907041E8000272B3206850E8E0
:10532000000F216820F4907041E800022AB3206841
:1053300050E8000F216820F4907041E80002002A34
:10534000DAD11AE0206850E8020F216820F001004D
:1053500041E80202DAB1206850E8020F216820F02B
:10536000010041E8020292B1206850E8020F216872
:1053700020F0010041E802024AB1206850E8020F23
:10538000216820F0010041E80202002ADAD103205E
:1053900020218C2209E000BF2020C4F88800C4F836
:1053A0008C00002170220020E166A150002184F8C9
:1053B000841002B0B0BD000070B504462269D4E983
:1053C0000213006811436269E6690568114346F6F5
:1053D000F312CCF6FF722A40114331430160416859
:1053E0004FF2FF4521F440511943416042F2004120
:1053F000A26940F08053C5F200418B421CBF236A72
:105400001A438368C1F2FF152B401A438260C26AB7
:10541000636A22F00F021A4346F2FF33C4F200031C
:105420009842C2621ADC44F6FF31C4F2000188429D
:1054300030DC44F20041C4F20001884250D044F60E
:105440000001C4F20001884240F0CC800420002119
:10545000FCF724FDB6F5004F67D048E042F2FF327A
:10546000C4F2004290422BDC46F20041C4F200013B
:10547000884253D043F60001C4F20101884240F053
:10548000B18001200021FCF709FDB6F5004F4CD09A
:105490002DE000BF44F60041C4F20001884263D011
:1054A00045F20001C4F20001884240F09B801020C8
:1054B0000021FCF7F3FCB6F5004F36D017E000BF33
:1054C00042F20042C4F20042904255D0884240F07D
:1054D000898000200021FCF7E1FC002852D177E010
:1054E00002200021FCF7DAFCB6F5004F1DD00028A1
:1054F0006ED0616A49F6A802C0F6000232F81110B7
:105500006268B0FBF1F000EB5200B0FBF2F04FF636
:10551000EF72A0F1100191425CD857E020200021E9
:10552000FCF7BCFCB6F5004FE1D1002850D0616A11
:1055300049F6A802C0F6000232F811106268B0FB0A
:10554000F1F0510801EB4000B0FBF2F04FF6EF72C2
:10555000A0F1100191423DD84FF6F071C0F3420224
:105560000840104432E000BF08200021FCF796FC00
:10557000B6F5004FBBD1D8E74FF480500021FCF7BF
:105580008DFC28B3616A49F6A802C0F6000232F821
:1055900011106268B0FBF1F102EB420081424FF062
:1055A000010018D31303994215D808020B0E10EB13
:1055B000520043F100010023FAF7D4FE4FF60052E7
:1055C000A0F54071C0F20F02914203D22168C86079
:1055D000002000E001204FF00111A1660021C4E984
:1055E0001D1170BD00200021FCF758FCB6F5004FDE
:1055F0009BD07CE72DE9F041804600681546C269E2
:105600000E461140891BB1FA81F149098D4223D11F
:10561000069C2CB3611C29D1C1693140891BB1FAA8
:1056200081F149098D4217D1C1693140891BB1FA15
:1056300081F149098D420FD1C1693140891BB1FA0D
:1056400081F149098D4207D1C1693140891BB1FA05
:1056500081F149098D42DFD00020BDE8F08100BF13
:10566000FBF7DAF90320BDE8F08100BF1F4607E031
:10567000C0693040801BB0FA80F040098542EBD110
:10568000FBF7CAF9C01BA04284BF0320BDE8F0812C
:10569000D8F8000001684907EAD5402E18BF802ECF
:1056A000E6D0C169090700F1A180C1690905DFD50C
:1056B0004FF400610162D8F8000050E8000FD8F8FC
:1056C000001020F4907041E800020AB3D8F80000FE
:1056D00050E8000FD8F8001020F4907041E8000264
:1056E000B2B1D8F8000050E8000FD8F8001020F44C
:1056F000907041E800025AB1D8F8000050E8000F5D
:10570000D8F8001020F4907041E80002002AD2D1AD
:105710004FF6FE70CEF6FF70D8F8001051E8021F69
:10572000D8F80020014042E80213F3B1D8F8001085
:1057300051E8021FD8F80020014042E80213A3B14B
:10574000D8F8001051E8021FD8F80020014042E8C4
:10575000021353B1D8F8001051E8021FD8F8002006
:10576000014042E80213002BD6D1D8F86C00012882
:105770002CD1D8F8000050E8000FD8F8001020F025
:10578000100041E800020AB3D8F8000050E8000F0A
:10579000D8F8001020F0100041E80002B2B1D8F8AB
:1057A000000050E8000FD8F8001020F0100041E889
:1057B00000025AB1D8F8000050E8000FD8F80010E5
:1057C00020F0100041E80002002AD2D12020002160
:1057D000C8F88C00C8F86C10C8F87410C8F89000AD
:1057E000032088F88410BDE8F08100BF0821016221
:1057F000D8F8000050E8000FD8F8001020F490709E
:1058000041E800020AB3D8F8000050E8000FD8F8C9
:10581000001020F4907041E80002B2B1D8F8000006
:1058200050E8000FD8F8001020F4907041E8000212
:105830005AB1D8F8000050E8000FD8F8001020F452
:10584000907041E80002002AD2D14FF6FE70CEF6E9
:10585000FF70D8F8001051E8021FD8F8002001406E
:1058600042E80213F3B1D8F8001051E8021FD8F84B
:105870000020014042E80213A3B1D8F8001051E81B
:10588000021FD8F80020014042E8021353B1D8F8B3
:10589000001051E8021FD8F80020014042E802132E
:1058A000002BD6D1D8F86C0001282CD1D8F80000F4
:1058B00050E8000FD8F8001020F0100041E8000276
:1058C0000AB3D8F8000050E8000FD8F8001020F014
:1058D000100041E80002B2B1D8F8000050E8000F13
:1058E000D8F8001020F0100041E800025AB1D8F8B2
:1058F000000050E8000FD8F8001020F0100041E838
:105900000002002AD2D12020C8F88C0000200821F3
:10591000C8F86C00C8F87400C8F8901088F88400C3
:105920000120BDE8F0810000002804BF012070477D
:10593000016C21F000410164016C41F0010101643E
:10594000002141640020704780B5002001F0F6FA84
:1059500040F2D030C2F20000BDE88040FBF75CB9F5
:105960000146806D20F4004200208A6570470000E7
:10597000014601200864086C002220F00100086440
:10598000086C20F00040086400204A647047000062
:105990000146006C4BF6807220EA020200200A6485
:1059A000704700002DE9F04F4A78012A60D1D1F804
:1059B00018B00F690A7BBB4528BFBB46002A00F020
:1059C0008180CA780E6A022A40F0B8800A7840F6D0
:1059D0003F7CC0F2FF7C50F82230ACF59875BE4297
:1059E00003EA050740F2EC8048F280133B4340F89D
:1059F00022300B6A1BF00308A3EB0B030B624FF082
:105A0000030313FA8BF350F822704FEA930946F21E
:105A1000004E18BFA9F101097B06C4F2010E4FEA3E
:105A20000B4400F125815EF83230B9F1000F9BB2D2
:105A30004EF832305EF8323043EA04034EF832302A
:105A40000B89D1F814A003EB0E07544600F05282E4
:105A500019F0030500F0A28154F8043B3E4646F8D5
:105A6000043B012D40F09E81A9F1010537462FE24C
:105A70000A7B40F63F73002AC0F2FF7346D0CA7813
:105A8000012A00F09380022A1CBF0120BDE8F08F9C
:105A9000CF690A78002F00F08C8050F8221044F271
:105AA00040073940B94218BF002940F0828050F8C1
:105AB0002210A3F13007394048F2C007394340F8BB
:105AC000221076E0032212FA8BF2CB8846F2004CC9
:105AD0004F6995081BF0030E18BF013DC4F2010C7D
